:100000000C945A000C9464000C9464000C946400EA
:100010000C9464000C9464000C9464000C946400D0
:100020000C9464000C9464000C9464000C946400C0
:100030000C9464000C9464000C9464000C946400B0
:100040000C9464000C9464000C9464000C946400A0
:100050000C9464000C9464000C9464000C94640090
:100060000C9464000C9464000C9464000C94640080
:100070000C9464000C9464000C9464000C94640070
:100080000C9464000C9464000C9464000C94640060
:100090000C9464000C9464000C9464000C94640050
:1000A0000C9464000C9464000C9464000C94640040
:1000B0000C94640011241FBECFEFD8E0DEBFCDBF8B
:1000C0000E944F040C94D8060C940000CF93DF9349
:1000D000CDB7DEB789EB90E0FC01108288EB90E0B1
:1000E0002CE0FC0120838CEB90E024E0FC012083D9
:1000F0000000DF91CF910895CF93DF93CDB7DEB7A6
:100100008CEB90E024EAFC01208300008CEB90E073
:10011000FC0180818823D4F70000DF91CF910895FE
:10012000CF93DF93CDB7DEB78CEB90E024E9FC01F1
:1001300020830000DF91CF910895CF93DF931F922A
:10014000CDB7DEB789838BEB90E02981FC0120835A
:100150008CEB90E024E8FC01208300008CEB90E025
:10016000FC0180818823D4F700000F90DF91CF91AC
:100170000895CF93DF9300D000D0CDB7DEB79A8338
:1001800089837C836B830E947C0080EC0E949D00AD
:1001900089810E949D008B810E949D000E94900099
:1001A00000000F900F900F900F90DF91CF91089566
:1001B000EF92FF920F931F93CF93DF93CDB7DEB7EC
:1001C00068970FB6F894DEBF0FBECDBF62ED70E04A
:1001D00087EB90E00E94B90060E070E083E090E07F
:1001E0000E94B9006FE070E080E190E00E94B900E9
:1001F0006FE270E081E190E00E94B9006FE270E090
:1002000082E190E00E94B90060EA70E081EB90E04A
:100210000E94B90084E290E0A0E0B0E089839A8374
:10022000AB83BC831D821E821F8218868FEF9FEFD7
:10023000AFE0B0E089879A87AB87BC8789819A81D4
:10024000AB81BC81880F991FAA1FBB1F880F991F04
:10025000AA1FBB1F880F991FAA1FBB1F880F991FBA
:10026000AA1FBB1F880F991FAA1FBB1F880F991FAA
:10027000AA1FBB1F880F991FAA1FBB1F7C018D01DE
:100280008D819E81AF81B885880F991FAA1FBB1FE2
:10029000880F991FAA1FBB1F880F991FAA1FBB1F7A
:1002A000880F991FAA1FBB1F880F991FAA1FBB1F6A
:1002B000880F991FAA1FBB1F880F991FAA1FBB1F5A
:1002C00029853A854B855C85BC01CD010E94AD0432
:1002D000DA01C9018E0D9F1DA01FB11F9250A10907
:1002E000B1098D879E87AF87B88B8D819E81AF8145
:1002F000B885880F991FAA1FBB1F880F991FAA1FB7
:10030000BB1F880F991FAA1FBB1F880F991FAA1F09
:10031000BB1F880F991FAA1FBB1F880F991FAA1FF9
:10032000BB1F880F991FAA1FBB1F29853A854B85C4
:100330005C85BC01CD010E94AD04DC01CB01898B41
:100340009A8BAB8BBC8B89859A85AB85BC858D8B55
:100350009E8BAF8BB88F6FEF70E08AE190E00E94C8
:10036000B9006FEF70E08BE190E00E94B9008D85DD
:100370009E85AF85B88988279927A370BB27CD01B3
:10038000AA27BB27BC018CE190E00E94B9008D85B3
:100390009E85AF85B8898827AA27BB27892F9A2FE2
:1003A000AB2FBB27BC018DE190E00E94B9008D8589
:1003B0009E859927BC018EE190E00E94B900898951
:1003C0009A89AB89BC8988279927AF70BB27CD0153
:1003D000AA27BB27806FBC018FE190E00E94B90083
:1003E00089899A89AB89BC898827AA27BB27892F45
:1003F0009A2FAB2FBB27BC0180E290E00E94B9008E
:1004000089899A899927BC0181E290E00E94B9000C
:100410006FEF70E082E290E00E94B9006FEF70E051
:1004200083E290E00E94B9008D859E85AF85B889F2
:1004300088279927A370BB27CD01AA27BB27BC011A
:1004400084E290E00E94B9008D859E85AF85B889D1
:100450008827AA27BB27892F9A2FAB2FBB27BC0140
:1004600085E290E00E94B9008D859E859927BC01A8
:1004700086E290E00E94B90089899A89AB89BC899B
:1004800088279927AF70BB27CD01AA27BB27806F8C
:10049000BC0187E290E00E94B90089899A89AB8902
:1004A000BC898827AA27BB27892F9A2FAB2FBB2768
:1004B000BC0188E290E00E94B90089899A89992755
:1004C000BC0189E290E00E94B900000068960FB676
:1004D000F894DEBF0FBECDBFDF91CF911F910F917A
:1004E000FF90EF900895CF92DF92EF92FF920F93DB
:1004F0001F93CF93DF93CDB7DEB7AA970FB6F894CB
:10050000DEBF0FBECDBF9EA38DA34FA358A769A783
:100510007AA78FEF9FEFAFE0B0E089839A83AB8338
:10052000BC8380E498E7ADE7B1E08D839E83AF8321
:10053000B8872D813E814F815885DA01C901880F26
:10054000991FAA1FBB1F880F991FAA1FBB1F880FC7
:10055000991FAA1FBB1F820F931FA41FB51F880FCF
:10056000991FAA1FBB1F880F991FAA1FBB1FBC0181
:10057000CD010E94DD056B017C016FA178A589A5E5
:100580009AA50E94DD05DC01CB019C01AD01C701EC
:10059000B6010E943C05DC01CB0189879A87AB87B5
:1005A000BC8769857A858B859C850E94AE05DC01B8
:1005B000CB018D879E87AF87B88B6D857E858F85B4
:1005C00098890E94DD05DC01CB019C01AD016985A4
:1005D0007A858B859C850E94CF04DC01CB01898BB9
:1005E0009A8BAB8BBC8B69817A818B819C810E94B9
:1005F000DD05DC01CB0129893A894B895C89BC0185
:10060000CD010E946B06DC01CB01BC01CD010E9433
:10061000AE05DC01CB018D8B9E8BAF8BB88F8D85AA
:100620009E85AF85B889880F991FAA1FBB1F880FA9
:10063000991FAA1FBB1F880F991FAA1FBB1F880FD6
:10064000991FAA1FBB1F880F991FAA1FBB1F880FC6
:10065000991FAA1FBB1F880F991FAA1FBB1F7C01D0
:100660008D018D899E89AF89B88D880F991FAA1F2A
:10067000BB1F880F991FAA1FBB1F880F991FAA1F96
:10068000BB1F880F991FAA1FBB1F880F991FAA1F86
:10069000BB1F880F991FAA1FBB1F880F991FAA1F76
:1006A000BB1F29813A814B815C81BC01CD010E9435
:1006B000AD04DA01C9018E0D9F1DA01FB11F92501C
:1006C000A109B109898F9A8FAB8FBC8F8D899E89C3
:1006D000AF89B88D880F991FAA1FBB1F880F991F5C
:1006E000AA1FBB1F880F991FAA1FBB1F880F991F26
:1006F000AA1FBB1F880F991FAA1FBB1F880F991F16
:10070000AA1FBB1F880F991FAA1FBB1F29813A81EF
:100710004B815C81BC01CD010E94AD04DC01CB01A9
:100720008D8F9E8FAF8FB8A389819A81AB81BC8159
:1007300089A39AA3ABA3BCA38DA19EA16FEF70E088
:100740000E94B9008DA19EA101966FEF70E00E94FA
:10075000B900898D9A8DAB8DBC8D88279927A370A0
:10076000BB27CD01AA27BB279C018DA19EA1029684
:10077000B9010E94B900898D9A8DAB8DBC8D8827F7
:10078000AA27BB27892F9A2FAB2FBB279C018DA1AE
:100790009EA10396B9010E94B900898D9A8D9C0192
:1007A00033278DA19EA10496B9010E94B9008D8DB9
:1007B0009E8DAF8DB8A188279927AF70BB27CD013B
:1007C000AA27BB27806F9C018DA19EA10596B90128
:1007D0000E94B9008D8D9E8DAF8DB8A18827AA2764
:1007E000BB27892F9A2FAB2FBB279C018DA19EA1E0
:1007F0000696B9010E94B9008D8D9E8D9C0133270C
:100800008DA19EA10796B9010E94B9000000AA9689
:100810000FB6F894DEBF0FBECDBFDF91CF911F9111
:100820000F91FF90EF90DF90CF900895CF93DF93DB
:10083000CDB7DEB728970FB6F894DEBF0FBECDBF99
:1008400098878F8388E494E09E838D831A8219822F
:1008500015C01C821B8206C000008B819C81019602
:100860009C838B832B813C818D819E812817390746
:100870009CF389819A8101969A83898329813A819F
:100880008F8198852817390724F3000028960FB622
:10089000F894DEBF0FBECDBFDF91CF910895CF9307
:1008A000DF93CDB7DEB728970FB6F894DEBF0FBE43
:1008B000CDBF80E896E9A8E9B0E08D839E83AF8341
:1008C000B88788E290E020E3FC0120830E94660064
:1008D00084E690E00E9416040E94D80084E690E02E
:1008E0000E9416048D819E81AF81B885AC01BD0147
:1008F0008AE290E00E94730288E893E10E94160465
:1009000080E896E9A8E9B0E089839A83AB83BC8349
:100910001AC089819A81AB81BC81AC01BD018AE298
:1009200090E00E94730288EE93E00E941604898191
:100930009A81AB81BC8188519C4FAF4FBF4F898357
:100940009A83AB83BC8389819A81AB81BC818031DE
:10095000964FA949B105E8F2D3CFA1E21A2EAA1BFE
:10096000BB1BFD010DC0AA1FBB1FEE1FFF1FA2175F
:10097000B307E407F50720F0A21BB30BE40BF50B5C
:10098000661F771F881F991F1A9469F760957095E5
:10099000809590959B01AC01BD01CF010895505801
:1009A000BB27AA270E94E7040C9431060E94230665
:1009B00038F00E942A0620F039F49F3F19F426F4FB
:1009C0000C9420060EF4E095E7FB0C941A06E92F30
:1009D0000E94420658F3BA17620773078407950707
:1009E00020F079F4A6F50C9464060EF4E0950B2E35
:1009F000BA2FA02D0B01B90190010C01CA01A00171
:100A00001124FF27591B99F0593F50F4503E68F1CB
:100A10001A16F040A22F232F342F4427585FF3CF0C
:100A2000469537952795A795F0405395C9F77EF4DD
:100A30001F16BA0B620B730B840BBAF09150A1F026
:100A4000FF0FBB1F661F771F881FC2F70EC0BA0FAC
:100A5000621F731F841F48F4879577956795B79534
:100A6000F7959E3F08F0B0CF9395880F08F099272F
:100A7000EE0F9795879508950E9450050C943106C6
:100A80000E942A0658F00E94230640F029F45F3F96
:100A900029F00C941A0651110C9465060C9420064A
:100AA0000E94420668F39923B1F3552391F3951BF5
:100AB000550BBB27AA2762177307840738F09F5F7F
:100AC0005F4F220F331F441FAA1FA9F335D00E2EEC
:100AD0003AF0E0E832D091505040E695001CCAF759
:100AE0002BD0FE2F29D0660F771F881FBB1F26171C
:100AF00037074807AB07B0E809F0BB0B802DBF01F3
:100B0000FF2793585F4F3AF09E3F510578F00C94C1
:100B10001A060C9465065F3FE4F3983ED4F386957D
:100B200077956795B795F7959F5FC9F7880F911DE2
:100B30009695879597F90895E1E0660F771F881FCE
:100B4000BB1F621773078407BA0720F0621B730B81
:100B5000840BBA0BEE1F88F7E09508950E944A06B1
:100B600088F09F5798F0B92F9927B751B0F0E1F06E
:100B7000660F771F881F991F1AF0BA95C9F714C01E
:100B8000B13091F00E946406B1E008950C946406BF
:100B9000672F782F8827B85F39F0B93FCCF3869557
:100BA00077956795B395D9F73EF4909580957095B4
:100BB00061957F4F8F4F9F4F0895E89409C097FB31
:100BC0003EF490958095709561957F4F8F4F9F4F24
:100BD0009923A9F0F92F96E9BB279395F695879568
:100BE00077956795B795F111F8CFFAF4BB0F11F42B
:100BF00060FF1BC06F5F7F4F8F4F9F4F16C08823D2
:100C000011F096E911C0772321F09EE8872F762F07
:100C100005C0662371F096E8862F70E060E02AF048
:100C20009A95660F771F881FDAF7880F9695879534
:100C300097F9089597F99F6780E870E060E008955C
:100C40009FEF80EC089500240A94161617061806E4
:100C50000906089500240A941216130614060506C0
:100C60000895092E0394000C11F4882352F0BB0F51
:100C700040F4BF2B11F460FF04C06F5F7F4F8F4FB4
:100C80009F4F089557FD9058440F551F59F05F3FEF
:100C900071F04795880F97FB991F61F09F3F79F09E
:100CA00087950895121613061406551FF2CF469520
:100CB000F1DF08C0161617061806991FF1CF8695A2
:100CC0007105610508940895E894BB276627772786
:100CD000CB0197F908950E947E060C9431060E947C
:100CE000230638F00E942A0620F0952311F00C9478
:100CF0001A060C94200611240C9465060E944206E4
:100D000070F3959FC1F3950F50E0551F629FF0015E
:100D1000729FBB27F00DB11D639FAA27F00DB11D77
:100D2000AA1F649F6627B00DA11D661F829F222700
:100D3000B00DA11D621F739FB00DA11D621F839F87
:100D4000A00D611D221F749F3327A00D611D231F5D
:100D5000849F600D211D822F762F6A2F11249F57AB
:100D600050409AF0F1F088234AF0EE0FFF1FBB1FAE
:100D7000661F771F881F91505040A9F79E3F51056D
:100D800080F00C941A060C9465065F3FE4F3983EDD
:100D9000D4F3869577956795B795F795E7959F5F17
:100DA000C1F7FE2B880F911D9695879597F90895A9
:040DB000F894FFCFE5
:00000001FF
