:100000000C945A000C9477000C9477000C947700B1
:100010000C9477000C9477000C9477000C94770084
:100020000C9477000C9477000C9477000C94770074
:100030000C9477000C9477000C9477000C94770064
:100040000C9477000C9477000C9443030C94770085
:100050000C9477000C9477000C9477000C94770044
:100060000C9477000C9477000C9477000C94770034
:100070000C9477000C9477000C9477000C94770024
:100080000C9477000C9477000C9477000C94770014
:100090000C9477000C9477000C9477000C94770004
:1000A0000C9477000C9477000C9477000C947700F4
:1000B0000C94770011241FBECFEFD8E0DEBFCDBF78
:1000C00011E0A0E0B1E0E8E6FEE002C005900D928C
:1000D000AC35B107D9F722E0ACE5B1E001C01D9223
:1000E000A930B207E1F70E946E030C9432070C941A
:1000F00000001092B9008CE08093B80084E08093F7
:10010000BC00089584EA8093BC008091BC0087FF06
:10011000FCCF089584E98093BC0008958093BB00D0
:1001200084E88093BC008091BC0087FFFCCF0895D9
:10013000CF93DF93D82FC62F0E94820080EC0E94BD
:100140008E008D2F0E948E008C2F0E948E0084E9DD
:100150008093BC00DF91CF91089562ED70E087EB52
:1001600090E00E9498006EE770E083E090E00E94CB
:1001700098006FE070E080E190E00E94980060E8F5
:1001800070E081E190E00E94980060E870E082E118
:1001900090E00E94980060E870E083E190E00E94A7
:1001A000980060E870E084E190E00E94980060E8C8
:1001B00070E085E190E00E94980060E870E086E1E0
:1001C00090E00E94980060E870E087E190E00E9473
:1001D000980060EA70E081EB90E00E9498006FEF79
:1001E00070E08AE190E00E9498006FEF70E08BE190
:1001F00090E00E94980060E070E08CE190E00E9446
:10020000980060E170E08DE190E00E94980060E06D
:1002100070E08EE190E00E94980060EF70E08FE166
:1002200090E00E94980060E070E080E290E00E9420
:10023000980060E070E081E290E00E9498006FEF2B
:1002400070E082E290E00E9498006FEF70E083E23D
:1002500090E00E94980060E070E084E290E00E94EC
:10026000980060E170E085E290E00E94980060E014
:1002700070E086E290E00E94980060EF70E087E214
:1002800090E00E94980060E070E088E290E00E94B8
:10029000980060E070E089E290E00C9498008F9202
:1002A0009F92AF92BF92CF92DF92EF92FF92CF9345
:1002B000DF93EC01CB01BA010E947E059B01AC01EA
:1002C00064EA73E986E59EE40E94DD044B015C016B
:1002D0000E944F056B017C010E947E059B01AC01D1
:1002E000C501B4010E94700420EF3FEF4FE759E4CD
:1002F0000E940C060E944F0527E0660F771F881F9B
:10030000991F2A95D1F737E0CC0CDD1CEE1CFF1CA1
:100310003A95D1F722E0D21AE108F1082FEF3FEF2A
:100320004FE050E00E9434044B015C01C20ED31E2A
:10033000E41EF51E6FEF70E0CE010E9498006FEF93
:1003400070E0CE0101960E949800D701C60188276F
:100350009927A370BB27BD0188279927CE01029654
:100360000E9498006D2D70E0CE0103960E949800C7
:10037000B6017727CE0104960E949800D501C401EA
:1003800088279927AF70BB27BD01606FCE01059606
:100390000E949800692D70E0CE0106960E94980098
:1003A000B4017727CE010796DF91CF91FF90EF90B0
:1003B000DF90CF90BF90AF909F908F900C9498005B
:1003C00020E030E0281739074CF448E454E00000FE
:1003D00041505109E1F72F5F3F4FF4CF089510923C
:1003E000C50083E38093C400F89488E98093C1003A
:1003F00086E08093C2008091C6008091C00087FD96
:10040000FACF80EC8093C00008959091C00095FFD2
:10041000FCCF8093C60081E090E008950F931F9376
:10042000CF93DF93EC018E0189910E940502F801C0
:1004300080818111F8CFDF91CF911F910F910895A5
:1004400080E091E00C940E02F89480E2E3E8F1E0A1
:10045000A3E6B1E001900D928A95E1F780E2E3E82E
:10046000F1E0DF011D928A95E9F778940895FC0187
:1004700001900020E9F73297108265E071E00E9458
:10048000A006BC0189EC91E00E94AE0665E071E037
:1004900080E090E00E94A006BC0189EE91E00E94FD
:1004A000AE0665E071E080E090E00E94A006BC012D
:1004B00089EA91E00C94AE06CF93DF93CDB7DEB717
:1004C000A0970FB6F894DEBF0FBECDBF67E071E016
:1004D00089EC91E00E94A506892B31F481E080939C
:1004E000A3018DE091E0A7C06DE271E089EC91E09D
:1004F0000E94A506892B49F46FEF70E083E090E03D
:100500000E9498001092A301B5C062E371E089ECEB
:1005100091E00E94A506892BB1F481E08093A301AC
:1005200060915E0170915F01809160019091610125
:100530002AE0AE014F5F5F4F0E94DC060E940E0270
:1005400088E391E078C06DE371E089EC91E00E946E
:10055000A506892B09F065C081E08093A30167E4BB
:1005600071E089EA91E00E94A506892B61F489EE89
:1005700091E00E94790660935E0170935F01809321
:1005800060019093610162E471E089EA91E00E9468
:10059000A506892B91F489EE91E00E9479069B01D2
:1005A000AC01A8EEB3E00E94560460935E01709324
:1005B0005F01809360019093610166E471E089EAD4
:1005C00091E00E94A506892BA1F489EE91E00E949A
:1005D00079069B01AC0160E472E48FE090E00E9438
:1005E000240460935E0170935F0180936001909397
:1005F000610140915E0150915F01609160017091D5
:100600006101DB01CA0180549244AF40B1098134D9
:100610009F48A14EB84068F48AE290E00E944F01E2
:1006200029C060E571E089EC91E00E94A506892B64
:1006300029F08AE491E00E940E021CC081E08093C0
:10064000A30165E571E089EE91E00E94A506892B82
:1006500019F46FEF70E00AC069E571E089EE91E08E
:100660000E94A506892B29F76EE770E083E090E0F1
:100670000E949800A0960FB6F894DEBF0FBECDBFC3
:10068000DF91CF9108951F920F920FB60F92112410
:100690008F93EF93FF93E0916201F0E08091C600A9
:1006A000ED57FE4F8083E0916201F0E0ED57FE4F81
:1006B00080818A3031F481E08093A8011092620138
:1006C00005C0809162018F5F80936201FF91EF917D
:1006D0008F910F900FBE0F901F901895529A8AB16C
:1006E0008AB90E94EF01789480E388B90E9479006A
:1006F00084E690E00E94E0010E94AD0084E690E074
:100700000E94E001C0E0D0E080E8C82E80EFD82E43
:100710008AEFE82E82E0F82E812C91EE992E95EF4B
:10072000A92E95E0B92E20E4422E22E4522E2FE08D
:10073000622E712C8091A801813051F40E94240214
:1007400083E691E00E9437020E945C021092A801A9
:100750005A9A84E690E00E94E0014B9B02C0C0E000
:10076000D0E04C9B02C0C1E0D0E04D9B02C0C2E093
:10077000D0E04E9B02C0C3E0D0E04F9B02C0C4E07B
:10078000D0E084E690E00E94E0015A98C017D107BB
:1007900011F48E01CFCFC230D10539F174F4209716
:1007A000D9F0C130D105B1F540925E0150925F01A0
:1007B00060926001709261012DC0C330D10511F1CA
:1007C000C430D10539F580925E0190925F01A0920C
:1007D0006001B09261011EC01092A3016FEF70E042
:1007E00083E090E00E94980015C080E896E9A8E9AF
:1007F000B0E080935E0190935F01A0936001B0939D
:10080000610108C0C0925E01D0925F01E092600178
:10081000F09261018091A3018111BBCF209709F46F
:10082000B8CF6EE770E083E090E00E9498004091BE
:100830005E0150915F0160916001709161018AE2F7
:1008400090E00E944F01A5CFDB018F939F930E9400
:100850005604BF91AF91A29F800D911DA39F900D53
:10086000B29F900D11240895A1E21A2EAA1BBB1B62
:10087000FD010DC0AA1FBB1FEE1FFF1FA217B3076C
:10088000E407F50720F0A21BB30BE40BF50B661F82
:10089000771F881F991F1A9469F760957095809546
:1008A00090959B01AC01BD01CF0108950E946104A8
:1008B000A59F900DB49F900DA49F800D911D1124B4
:1008C0000895A29FB001B39FC001A39F700D811D29
:1008D0001124911DB29F700D811D1124911D089549
:1008E0005058BB27AA270E9488040C94D2050E9466
:1008F000C40538F00E94CB0520F039F49F3F19F46D
:1009000026F40C94C1050EF4E095E7FB0C94BB05AE
:10091000E92F0E94E30558F3BA17620773078407AB
:10092000950720F079F4A6F50C9405060EF4E095F1
:100930000B2EBA2FA02D0B01B90190010C01CA0199
:10094000A0011124FF27591B99F0593F50F4503E44
:1009500068F11A16F040A22F232F342F4427585F36
:10096000F3CF469537952795A795F0405395C9F74E
:100970007EF41F16BA0B620B730B840BBAF0915006
:10098000A1F0FF0FBB1F661F771F881FC2F70EC0A5
:10099000BA0F621F731F841F48F487957795679578
:1009A000B795F7959E3F08F0B0CF9395880F08F064
:1009B0009927EE0F9795879508950E94F1040C945E
:1009C000D2050E94CB0558F00E94C40540F029F4DE
:1009D0005F3F29F00C94BB0551110C9406060C9452
:1009E000C1050E94E30568F39923B1F3552391F300
:1009F000951B550BBB27AA2762177307840738F08E
:100A00009F5F5F4F220F331F441FAA1FA9F335D0EA
:100A10000E2E3AF0E0E832D091505040E695001C9E
:100A2000CAF72BD0FE2F29D0660F771F881FBB1F58
:100A3000261737074807AB07B0E809F0BB0B802D36
:100A4000BF01FF2793585F4F3AF09E3F510578F062
:100A50000C94BB050C9406065F3FE4F3983ED4F378
:100A6000869577956795B795F7959F5FC9F7880F36
:100A7000911D9695879597F90895E1E0660F771F88
:100A8000881FBB1F621773078407BA0720F0621B19
:100A9000730B840BBA0BEE1F88F7E09508950E9444
:100AA000EB0588F09F5798F0B92F9927B751B0F010
:100AB000E1F0660F771F881F991F1AF0BA95C9F7E2
:100AC00014C0B13091F00E940506B1E008950C9475
:100AD0000506672F782F8827B85F39F0B93FCCF328
:100AE000869577956795B395D9F73EF4909580955F
:100AF000709561957F4F8F4F9F4F0895E89409C07F
:100B000097FB3EF490958095709561957F4F8F4F40
:100B10009F4F9923A9F0F92F96E9BB279395F69556
:100B2000879577956795B795F111F8CFFAF4BB0FD4
:100B300011F460FF1BC06F5F7F4F8F4F9F4F16C038
:100B4000882311F096E911C0772321F09EE8872FC2
:100B5000762F05C0662371F096E8862F70E060E07E
:100B60002AF09A95660F771F881FDAF7880F9695F7
:100B7000879597F9089597F99F6780E870E060E09E
:100B800008959FEF80EC089500240A941616170626
:100B900018060906089500240A941216130614066E
:100BA00005060895092E0394000C11F4882352F0D1
:100BB000BB0F40F4BF2B11F460FF04C06F5F7F4F89
:100BC0008F4F9F4F089557FD9058440F551F59F070
:100BD0005F3F71F04795880F97FB991F61F09F3F2A
:100BE00079F087950895121613061406551FF2CF53
:100BF0004695F1DF08C0161617061806991FF1CFA3
:100C000086957105610508940895E894BB276627C9
:100C10007727CB0197F908950E941F060C94D205FF
:100C20000E94C40538F00E94CB0520F0952311F0F6
:100C30000C94BB050C94C10511240C9406060E946B
:100C4000E30570F3959FC1F3950F50E0551F629F28
:100C5000F001729FBB27F00DB11D639FAA27F00D15
:100C6000B11DAA1F649F6627B00DA11D661F829F3C
:100C70002227B00DA11D621F739FB00DA11D621F21
:100C8000839FA00D611D221F749F3327A00D611D3E
:100C9000231F849F600D211D822F762F6A2F112420
:100CA0009F5750409AF0F1F088234AF0EE0FFF1F53
:100CB000BB1F661F771F881F91505040A9F79E3FAA
:100CC000510580F00C94BB050C9406065F3FE4F3DD
:100CD000983ED4F3869577956795B795F795E79500
:100CE0009F5FC1F7FE2B880F911D9695879597F909
:100CF00008951F93FC0199278827BC01E89411915E
:100D00001032E9F3193010F01E30C8F31B3251F0E5
:100D10001D3249F4689406C00E94EB06610F711DF4
:100D2000811D911D119110531A30B0F33EF490952E
:100D30008095709561957F4F8F4F9F4F1F910895BC
:100D40004CE551E00E94B5060895FB01DC018D9150
:100D5000019080190110D9F3990B0895FB01DC0172
:100D600001900D920020E1F70895FA01A191B08160
:100D7000009719F41097E1F0CD01DC01CD010D9041
:100D8000002011F4C00113C0FB012191222319F0AE
:100D90002015D9F7F3CFFB012191201519F41E92EC
:100DA000119606C02223C1F70D900020A1F7D001B3
:100DB000FA01A193B0830895BB272A3051F49923F7
:100DC00042F4BDE290958095709561957F4F8F4F6D
:100DD0009F4F0C940107592F482F372F262F660F4E
:100DE000771F881F991F660F771F881F991F620F33
:100DF000731F841F951F660F771F881F991F089503
:100E0000BB27FA01A62F6217710581059105330BE7
:100E100030FB66F0AA27660F771F881F991FAA1F4D
:100E2000A21710F0A21B63953850A9F7A05DAA3352
:100E300008F0A95DA19336F7B111B1931082CA01F0
:100E40000C942207DC01FC01672F71917723E1F7F5
:100E5000329704C07C916D9370836291AE17BF0787
:080E6000C8F30895F894FFCFD8
:100E68004F4B0D0A0020002A49444E3F0054554478
:100E7800205445545F454D56204B616D6D67656E36
:100E8800657261746F722056312E300A002A5253EF
:100E98005400465245513F0020487A0A00465245C0
:100EA80051006B487A004D487A002D3130300A00E5
:0C0EB8004F555450004F4646004F4E006E
:00000001FF
