:100000000C945A000C9477000C9477000C947700B1
:100010000C9477000C9477000C9477000C94770084
:100020000C9477000C9477000C9477000C94770074
:100030000C9477000C9477000C9477000C94770064
:100040000C9477000C9477000C9428020C947700A1
:100050000C9477000C9477000C9477000C94770044
:100060000C9477000C9477000C9477000C94770034
:100070000C9477000C9477000C9477000C94770024
:100080000C9477000C9477000C9477000C94770014
:100090000C9477000C9477000C9477000C94770004
:1000A0000C9477000C9477000C9477000C947700F4
:1000B0000C94770011241FBECFEFD8E0DEBFCDBF78
:1000C00011E0A0E0B1E0E8E7F9E002C005900D9290
:1000D000AE33B107D9F721E0AEE3B1E001C01D9224
:1000E000A838B207E1F70E9453020C94BA040C94AA
:1000F00000001092B9008CE08093B80084E08093F7
:10010000BC00089584EA8093BC008091BC0087FF06
:10011000FCCF089584E98093BC0008958093BB00D0
:1001200084E88093BC008091BC0087FFFCCF0895D9
:10013000CF93DF93D82FC62F0E94820080EC0E94BD
:100140008E008D2F0E948E008C2F0E948E0084E9DD
:100150008093BC00DF91CF91089562ED70E087EB52
:1001600090E00E94980060E070E083E090E00E94E0
:1001700098006FE070E080E190E00E9498006FE2EC
:1001800070E081E190E00E9498006FE270E082E10F
:1001900090E00E94980060EA70E081EB90E00E949D
:1001A00098006FEF70E08AE190E00E9498006FEF96
:1001B00070E08BE190E00E94980060E070E08CE1DC
:1001C00090E00E94980060E170E08DE190E00E9474
:1001D000980060E070E08EE190E00E94980060EF8F
:1001E00070E08FE190E00E94980060E070E080E2B3
:1001F00090E00E94980060E070E081E290E00E9450
:1002000098006FEF70E082E290E00E9498006FEF3C
:1002100070E083E290E00E94980060E070E084E289
:1002200090E00E94980060E170E085E290E00E941A
:10023000980060E070E086E290E00E94980060EF35
:1002400070E087E290E00E94980060E070E088E251
:1002500090E00E94980060E070E089E290E00C94E9
:1002600098008F929F92AF92BF92CF92DF92EF92BF
:10027000FF92CF93DF93EC01CB01BA010E94BF0341
:100280009B01AC0164EA73E986E59EE40E941E03CB
:100290004B015C010E9490036B017C010E94BF0333
:1002A0009B01AC01C501B4010E94B10220EF3FEFF8
:1002B0004FE759E40E944D040E94900327E0660F27
:1002C000771F881F991F2A95D1F737E0CC0CDD1CCA
:1002D000EE1CFF1C3A95D1F722E0D21AE108F10892
:1002E0002FEF3FEF4FE050E00E948F024B015C0187
:1002F000C20ED31EE41EF51E6FEF70E0CE010E9409
:1003000098006FEF70E0CE0101960E949800D7012F
:10031000C60188279927A370BB27BD018827992785
:10032000CE0102960E9498006D2D70E0CE010396DA
:100330000E949800B6017727CE0104960E9498008B
:10034000D501C40188279927AF70BB27BD01606F15
:10035000CE0105960E949800692D70E0CE010696A8
:100360000E949800B4017727CE010796DF91CF91C4
:10037000FF90EF90DF90CF90BF90AF909F908F90C5
:100380000C94980020E030E0281739074CF448E43A
:1003900054E0000041505109E1F72F5F3F4FF4CF87
:1003A00008951092C50083E38093C400F89488E90F
:1003B0008093C10086E08093C2008091C600809146
:1003C000C00087FDFACF80EC8093C0000895909123
:1003D000C00095FFFCCF8093C60081E090E00895B7
:1003E0000F931F93CF93DF93EC018E0189910E94AD
:1003F000E701F80180818111F8CFDF91CF911F9142
:100400000F91089580E091E00C94F001F89480E25F
:10041000E3E6F1E0A3E4B1E001900D928A95E1F703
:10042000E0916301F0E080E2DF011D928A95E9F737
:100430007894089585E091E00E94F00183E491E0D2
:100440008051914021F486E191E00C94F0010895EF
:100450001F920F920FB60F9211248F93EF93FF9379
:10046000E0914201F0E08091C600ED59FE4F80839B
:10047000E0914201F0E0ED59FE4F80818A3031F485
:1004800081E0809387011092420105C08091420172
:100490008F5F80934201FF91EF918F910F900FBE7C
:1004A0000F901F90189580E091EEA5EFB5E0809336
:1004B0003E0190933F01A0934001B09341010E94FF
:1004C000D101789480E388B90E94790084E690E0B5
:1004D0000E94C2010E94AD0084E690E00E94C20129
:1004E00040913E0150913F01609140017091410166
:1004F0008AE290E00E94310181E391E00E94F001E4
:10050000809187018130E1F70E94060283E491E047
:100510000E94F0010E941A0210928701F1CFA1E21D
:100520001A2EAA1BBB1BFD010DC0AA1FBB1FEE1F6D
:10053000FF1FA217B307E407F50720F0A21BB30BB8
:10054000E40BF50B661F771F881F991F1A9469F734
:1005500060957095809590959B01AC01BD01CF0190
:1005600008955058BB27AA270E94C9020C9413046F
:100570000E94050438F00E940C0420F039F49F3FDB
:1005800019F426F40C9402040EF4E095E7FB0C94A5
:10059000FC03E92F0E94240458F3BA17620773077B
:1005A0008407950720F079F4A6F50C9446040EF420
:1005B000E0950B2EBA2FA02D0B01B90190010C0173
:1005C000CA01A0011124FF27591B99F0593F50F48B
:1005D000503E68F11A16F040A22F232F342F4427E3
:1005E000585FF3CF469537952795A795F0405395DB
:1005F000C9F77EF41F16BA0B620B730B840BBAF0AB
:100600009150A1F0FF0FBB1F661F771F881FC2F715
:100610000EC0BA0F621F731F841F48F48795779529
:100620006795B795F7959E3F08F0B0CF9395880FE3
:1006300008F09927EE0F9795879508950E94320349
:100640000C9413040E940C0458F00E94050440F01E
:1006500029F45F3F29F00C94FC0351110C944704DA
:100660000C9402040E94240468F39923B1F35523E7
:1006700091F3951B550BBB27AA27621773078407B5
:1006800038F09F5F5F4F220F331F441FAA1FA9F34B
:1006900035D00E2E3AF0E0E832D091505040E69539
:1006A000001CCAF72BD0FE2F29D0660F771F881F9A
:1006B000BB1F261737074807AB07B0E809F0BB0B8D
:1006C000802DBF01FF2793585F4F3AF09E3F5105A1
:1006D00078F00C94FC030C9447045F3FE4F3983EDD
:1006E000D4F3869577956795B795F7959F5FC9F78A
:1006F000880F911D9695879597F90895E1E0660F0B
:10070000771F881FBB1F621773078407BA0720F083
:10071000621B730B840BBA0BEE1F88F7E0950895EC
:100720000E942C0488F09F5798F0B92F9927B75151
:10073000B0F0E1F0660F771F881F991F1AF0BA9585
:10074000C9F714C0B13091F00E944604B1E0089599
:100750000C944604672F782F8827B85F39F0B93F8B
:10076000CCF3869577956795B395D9F73EF4909538
:100770008095709561957F4F8F4F9F4F0895E894B6
:1007800009C097FB3EF490958095709561957F4FD9
:100790008F4F9F4F9923A9F0F92F96E9BB27939587
:1007A000F695879577956795B795F111F8CFFAF497
:1007B000BB0F11F460FF1BC06F5F7F4F8F4F9F4FC8
:1007C00016C0882311F096E911C0772321F09EE826
:1007D000872F762F05C0662371F096E8862F70E08C
:1007E00060E02AF09A95660F771F881FDAF7880F66
:1007F0009695879597F9089597F99F6780E870E037
:1008000060E008959FEF80EC089500240A94161686
:10081000170618060906089500240A9412161306EE
:10082000140605060895092E0394000C11F488237C
:1008300052F0BB0F40F4BF2B11F460FF04C06F5F98
:100840007F4F8F4F9F4F089557FD9058440F551F6E
:1008500059F05F3F71F04795880F97FB991F61F042
:100860009F3F79F087950895121613061406551FB9
:10087000F2CF4695F1DF08C0161617061806991F25
:10088000F1CF86957105610508940895E894BB271A
:1008900066277727CB0197F908950E9460040C948E
:1008A00013040E94050438F00E940C0420F09523E4
:1008B00011F00C94FC030C94020411240C944704D2
:1008C0000E94240470F3959FC1F3950F50E0551FCB
:1008D000629FF001729FBB27F00DB11D639FAA2795
:1008E000F00DB11DAA1F649F6627B00DA11D661FE4
:1008F000829F2227B00DA11D621F739FB00DA11D05
:10090000621F839FA00D611D221F749F3327A00DBE
:10091000611D231F849F600D211D822F762F6A2F5A
:1009200011249F5750409AF0F1F088234AF0EE0FBF
:10093000FF1FBB1F661F771F881F91505040A9F7EC
:100940009E3F510580F00C94FC030C9447045F3FDC
:10095000E4F3983ED4F3869577956795B795F79528
:10096000E7959F5FC1F7FE2B880F911D96958795A0
:0809700097F90895F894FFCFF8
:100978004F4B0D0A0070726F63657373696E670081
:100988002A49444E3F0054554420544554454D5639
:10099800204B616D6D67656E657261746F720D0ACB
:0E09A8000048616C6C6F2057656C740D0A007E
:00000001FF
